S00C00004C6162322E73726563D7
S11300000C9434000C943E000C943E000C943E007E
S11300100C943E000C943E000C943E000C943E0064
S11300200C943E000C943E000C943E000C943E0054
S11300300C943E000C943E000C943E000C943E0044
S11300400C943E000C943E000C943E000C943E0034
S11300500C943E000C943E000C943E000C943E0024
S11300600C943E000C943E0011241FBECFEFD8E048
S1130070DEBFCDBF0E9440000C9461000C940000D0
S113008088E184B998E180E195B9EFE1FEE4319724
S1130090F1F700C0000015B8EFE1FEE43197F1F785
S11300A000C0000085B9EFE1FEE43197F1F700C02C
S11300B0000015B8EFE1FEE43197F1F700C000004D
S10900C0E3CFF894FFCF2A
S9030000FC
